:020000041000EA
:10000000002008205D0100101B0100101D010010E0
:100010001101001011010010110100101101001058
:100020001901001019010010190100101F01001022
:10003000110100101901001021010010230100100E
:100040001101001011010010110100101101001028
:100050001101001011010010110100101101001018
:100060001101001011010010110100101101001008
:1000700011010010110100101101001011010010F8
:1000800011010010110100101101001011010010E8
:1000900011010010110100101101001011010010D8
:1000A00011010010110100101101001011010010C8
:1000B00011010010110100101101001011010010B8
:1000C00011010010110100101101001011010010A8
:1000D0001101001011010010110100101101001098
:1000E0001101001011010010110100101101001088
:1000F0001101001011010010110100101101001078
:100100001101001011010010110100101101001067
:10011000EFF30580103800BE00BE00BE00BE00BE7A
:1001200000BE00BEF2EB8871D0390C10F8390C100B
:10013000A001001090A31AE7D3DEFFFF42012110B7
:10014000FF01000000680C00793512AB4FF0000091
:100150001E49086006C881F3088810474FF05040D8
:10016000006810B14FF00000F2E70DA40ECC00299A
:1001700002D000F012F8F9E71549164A002000E015
:1001800001C19142FCD11449884714498847144958
:10019000884700BEFDE701C901C29A42FBD3704700
:1001A000F8390C10100100205030002038690C1074
:1001B000000008200000082038690C1000100820FA
:1001C00000100820000000007047000008ED00E06B
:1001D00050300020FC690220313C001029980210A8
:1001E000F53B0010F8B500BF064B0749C91A891046
:1001F00048BF0131491003D0044B0BB101481847E7
:10020000704700BF50300020503000200000000038
:1002100008B5054B1BB105490548AFF30080BDE8A3
:100220000840FFF7E1BF00BF00000000CC610020E4
:10023000A427071010B44FF480740C4B53F82020FF
:1002400003EB8003C00082F0400200F1804003F520
:10025000805C02F0C00200F5203003F54053CCF87A
:10026000002041601C605DF8044B7047048003402F
:1002700010B4084CC90041EA820154F8202004EB74
:100280008003514003F5805301F00C015DF8044BED
:100290001960704704800340064B022203EB800381
:1002A00019B103F500531A60704703F540531A6003
:1002B000704700BF048003404FF050431B6893B168
:1002C0000C4B4FEAD00C00F00700800081400A4838
:1002D00003EB8C030CF18C0C40F82C102AB103F5C5
:1002E000005319607047054BEBE703F54053196065
:1002F000704700BF90820240008002404882024066
:100300002DE9F0414FF050480D4FD8F80030164617
:1003100057F82320044602420D4609D114432946CA
:10032000324647F823401520BDE8F04100F0B4B94B
:1003300001F0D2FBD8F8003057F82320EEE700BFD9
:10034000A464002010B50446152000F099FA4FF07F
:100350005043044A196852F8213023EA040342F852
:10036000213010BDA464002030B44FF0000343ECF2
:10037000440043EC400005254FF480740B4BC20051
:1003800053F8201003EB800081F0400102F180431C
:1003900003F5203301F0C00200F5805100F5405014
:1003A0000A605D60046030BC704700BF0480034099
:1003B0000FB400B583B0049C074803F0E7FD3CB1DF
:1003C00005A92046019103F0AFFB044803F0DEFDD0
:1003D000012003F0C1FB00BFA8270710CC63071062
:1003E000EFF3108072B6064BD3E8CF1F012200292D
:1003F000FAD1C3E8412F0029F6D1BFF35F8F7047D0
:10040000434D00200023034AC2E88F3F80F3108849
:10041000704700BF434D002070B58646EFF310854E
:1004200072B6124CD4E8CF6F0120002EFAD1C4E886
:10043000460F002EF6D1BFF35F8F4FF0010CC808B6
:1004400001F007030CFA03F31EF800C01CEA0306D0
:1004500008D14CEA030C0EF800C0C4E88F6F85F396
:10046000108870BD1046FFF7A3FF00BF434D00206A
:10047000F8B5EFF3108772B61C4ED6E8CF5F0124B3
:10048000002DFAD1C6E8454F002DF6D1BFF35F8F9E
:100490009A421BD8012502E00132934222D3D408AC
:1004A00010F804E002F0070C05FA0CFC1EEA0C0F31
:1004B000F2D14EEA0C0E00F804E010460023C6E824
:1004C0008F3F87F31088984207DBF8BD0023C6E80A
:1004D0008F3F87F310884FF0FF300029F5D0069842
:1004E000FFF766FF4FF0FF30E8E700BF434D002005
:1004F00000B5EFF3108E72B6104BD3E8CFCF0122C8
:10050000BCF1000FF9D1C3E84C2FBCF1000FF4D1BE
:10051000BFF35F8F01224FEAD10C01F0070102FA0D
:1005200001F110F80C2022EA010200F80C20002250
:10053000C3E88F2F8EF310885DF804FB434D002035
:10054000044A1078431CDBB2182B28BF1023137009
:10055000704700BFEC1E00200146024A0248FFF728
:100560005BBF00BFB8270710B84F00204FF0E02254
:10057000936843F000539360704700BF0021044B21
:1005800003F12002C3E88F1F01339342FAD1704771
:10059000384D00204FF0E0234FF08032C3F80024A4
:1005A000C3F80424C3F80824C3F80C24C3F81024A7
:1005B000C3F81424C3F81824C3F81C24C3F8202457
:1005C000C3F82424C3F82824C3F82C24C3F8302407
:1005D00062B67047012300F01F029340400941B109
:1005E000800000F1604000F56140C0F88031036098
:1005F0007047024A203042F82030704700E100E0A6
:100600000123064A410952F8212000F01F0003FA95
:1006100000F01040003818BF0120704700E100E0F2
:1006200001224309034900F01F008240403341F892
:100630002320704700E100E0F8B50D46EFF3108786
:1006400072B6124ED6E8CF2F0123002AFAD1C6E89F
:10065000423F002AF6D1BFF35F8F0D4B00F110042B
:100660009B680C4A53F82430934203D0994201D03E
:1006700001F032FA064B9B6843F82450BFF35F8FBA
:100680000023C6E88F3F87F31088F8BD414D002056
:1006900000ED00E0110100102DE9F04F81468B467E
:1006A000164683B0EFF3108372B6DFF8D0A1009343
:1006B000DAE8CF1F01230029FAD1CAE8413F002917
:1006C000F6D1BFF35F8F664B93F90040002CC0F268
:1006D000A080644D04EB440705EB870898F80610EA
:1006E00009F110091970604BBF009B6853F829008D
:1006F0006300411B2F292FD95C49884240F0A48018
:100700001C445B4B02372F44043BDB1BC3F34A03FF
:100710006FEAC3434FF421416FEAD34325F8241015
:1007200005EB840463804BF60153A380FF2348F05C
:100730000100E671C4F808B0A3714B4B9B6843F805
:100740002900BFF35F8F0023CAE88F3F009B83F32C
:10075000108803B0BDE8F08F20F0010E9EF807105E
:10076000B1422ED84FF42143EB53414BB91C2944DD
:10077000043B04375B1A2F44AEF10401C91BC1F3DB
:100780004A043C49C3F34A030B432143A8F804102D
:100790003949A8F802304AF6AA2073465B1B5B4130
:1007A0005843000D88F8076088F80600C8F808B0BC
:1007B00048F00100CEF80010BFE7D179B1422ED940
:1007C00096469EF906C00CEB4C02BCF1000F05EBFF
:1007D0008202F2DA4BF601510EF10402A8F104078D
:1007E000BF1AC7F34A076FEAC7476FEAD7478EF8C1
:1007F000064003EB0408204C05EB8803AEF80470B8
:1008000045F82840998083F806C0DE71C3F808B027
:1008100093E701F061F9124B93F9004059E77246F2
:1008200032F8041F490514D44915023102EB410185
:1008300001916FF00701C91B019F491B3944C1F3A6
:100840004A0141F46041C9E7019301F045F9019B78
:1008500056E701F5FF1101F5FF511F31E4E700BF35
:10086000E8690220F01E002000ED00E011010010F8
:10087000201F002000E0FFFF01488047414D00207D
:100880002DE9F04F83B0EFF3108A72B6714ED6E8BF
:10089000CF2F0123002AFAD1C6E8423F002AF6D121
:1008A000BFF35F8F6C4B00F110089B686B4A53F8E5
:1008B0002850954245D08D420C4650D0684FEB1BD6
:1008C0002F2B3ED801214FEA50194FEA890909F12F
:1008D000604909F5614900F01F0301FA03F0D9F8F6
:1008E0000030C9F8800000EA030BBFF35F8FEFF31D
:1008F0000581C9B2002934D0884505D0CDE9001062
:1009000001F0EAF8DDE9001025F0010EDEF808C07C
:10091000644505D189E0D3F808C0644531D09E46CE
:100920009EF9062002EB4203002A07EB8303F2DA6A
:10093000644561D0BBF1000F20D0C9F88001C9F82F
:100940000000454B9B6843F82850BFF35F8F00239E
:10095000C6E88F3F8AF3108803B0BDE8F08F1546D4
:10096000EFE725F0010EDEF808C06445D8D19EF906
:1009700006407346002C08DA154646E0C9F88000A8
:10098000DFE793F90640002C37DB04EB440C07EB60
:100990008C0C9CF80710DCF80820D9719A609CF93F
:1009A00006206100002A9A713DDBBCF804E05FEA92
:1009B0004E5E05D50EF5FF1E0EF5FF5E0EF11F0E05
:1009C0006FF0070C0A194FEA6E5E920002EB4E02BE
:1009D00008323A44ACEB030C6244C2F34A026FEAB9
:1009E000C2426FEAD2429A801E4B21441A7807EB2A
:1009F00081011C708A719DE77346D9B9FF228EF878
:100A000006204BF60152AEF80420164C4AF6AA22F4
:100A100094F800C01946C91B49414A43120D83F896
:100A200006C0227086E7104ADDE79EF9064073464D
:100A3000002CAADA0D4A0E4CD21A083AC2F30A3137
:100A40006FEA01516FEA115144EA5202DA8099804B
:100A500070E700BF414D002000ED00E011010010E3
:100A6000F01E0020E869022001BDFFFF2A1F0020C0
:100A700000F8FFFF4FF0FF0C20F0030303F1604389
:100A800003F5644300F003001A68C0000CFA00FC90
:100A900022EA0C0281400A431A607047F0B5EFF376
:100AA0000585EDB2EFF3108C72B62649D1E8CF2F51
:100AB0000123002AFAD1C1E8423F002AF6D1BFF350
:100AC0005F8F214E40F0010EB4684AF6AA2354F815
:100AD00025701E4A0446A41A644163431B0D7745E2
:100AE0005BB21BD092F906409C421CD092F9124096
:100AF0009C4223D092F91E409C4221D092F92A4078
:100B00009C4208BF03240FD0114A002415781370AB
:100B10008571C1E88F4F8CF31088F0BDB2680D4C21
:100B200042F82540F0E7002404EB440402EB840281
:100B3000FF2494714BF601549480E5E70124F3E718
:100B40000224F1E7414D002000ED00E0F01E0020FE
:100B5000E86902201101001001460248C1F1330189
:100B6000FFF7C6BCFA69022010B5074C82B00146F7
:100B70000523002200940548FFF77AFC0028A8BF4F
:100B8000C0F1330002B010BDD8270710FA69022067
:100B900070B504460E461546FFF7D2FC01462046C6
:100BA00000F006F8A680E580BFF35F8F70BD00BF40
:100BB000014B0B4403607047384D0020F8B5124CD0
:100BC000124DAC4211D24FF0FF36002723686BB1B3
:100BD000FFF7B6FC01462046FFF7EAFF6660277282
:100BE000BFF35F8F0C34AC42F0D3F8BDFFF7A8FC25
:100BF00001462046FFF7DCFF6660BFF35F8F0834D5
:100C0000AC42E3D3F8BD00BF40300020503000209C
:100C100010B50446FFF794FC01462046FFF7C8FFD5
:100C20004FF0FF32002362602372BFF35F8F10BD6D
:100C30002DE9F04F2DED028B85B0EFF30583DBB28C
:100C4000103B9A0818BF01224FF0010103F0030B7B
:100C500018BFAF4DAF4B08BFAF4D0BEB820253F83F
:100C6000226001FA0BF205F541539FEDA78B01922B
:100C70005A602FE0B3881C0440F19380B379002BB5
:100C800040F0DD80B6F90820002AC0F21E817369A9
:100C900002EB420203EBC203D3E90247B7F1FF3F85
:100CA00008BFB4F1FF3F0ED005EB8B01AB6A0A69B8
:100CB000D21AE31A934205D301232A6A03FA0BF3EB
:100CC000134200D10C61284600F076FCA042B941E5
:100CD000C0F2FB80B6F90830019A002B0093EA635A
:100CE000C8DBD6F8148003EB4309284608EBC90794
:100CF000D7E9024A00F060FCA04271EB0A01B9DBBF
:100D0000BAF1000FC0F2C380D7E90431834A93429D
:100D100000F0ED807A88B6F9080092B242EA00400D
:100D2000984702460B4652EA030100F0B080002BC0
:100D300080F2D180B4EB020E6AEB030A38F9393045
:100D4000C7E902EA002B95DB716903EB430201EB73
:100D5000C202D2E90270BE457AEB000C4FEA4302B0
:100D600088DBB4462CF8083F06E003EB430001EBB8
:100D7000C0005A00D0E90270BE451A447AEB000068
:100D800001EBC20404DB31F93230A446002BECDA6B
:100D900028F83930009BACF80030B3881C043FF5CC
:100DA0006DAF3369EFF3108272B6D3E8CF0F012134
:100DB0000028FAD1C3E8401F0028F6D1BFF35F8FA7
:100DC0004FF6FF74B0880023316900B2B480C1E8E7
:100DD0008F3F82F310889842FFF650AF0746A9462E
:100DE000746906F1080807EB470E04EBCE03D3E95C
:100DF0000250B6F90830C446002B13DBB246009708
:100E000004E034F936309446002B09DB03EB43064B
:100E100004EBC602D2E90271BD4270EB0101F0DAC7
:100E20005646009FACF8007034F93E7024F83E300E
:100E3000002FD8DAB3794D46002B3FF423AF0023BF
:100E4000B371B6F9083006F10808581C3DD01A46AF
:100E5000776903E08046591C3FF416AF03EB43016A
:100E600007EBC100B0F802C01C461CF4004F9E46C0
:100E700037F93130EED0944280ED028B05D0A8F8DE
:100E80000030328927F8312034817246E3E738F8A0
:100E9000393033813369EFF3108272B6D3E8CF0F64
:100EA00001210028FAD1C3E8401F0028F6D1BFF382
:100EB0005F8F7388316928F83930009B7380002375
:100EC000C1E88F3F82F31088D4E640BF05B0BDEC87
:100ED000028BBDE8F08F2846CDE9022300F06CFBC1
:100EE000029A039B10EB020E43EB010A26E7084629
:100EF0000B69029198470028C9D00299D1E90023D3
:100F000011E700BFAFF30080FFFFFFFFFFFFFFFF10
:100F100000800B40E461002000000B40310C001009
:100F20000B4808B50368EFF3108172B6D3E8CFCF52
:100F30000122BCF1000FF9D1C3E84C2FBCF1000F26
:100F4000F4D1BFF35F8F08F0BFFA0020002108BD85
:100F5000986500202DE9F84F364C25692DB1BDE884
:100F6000F84F0A213448FFF723BEDFF8E48003215D
:100F7000404600F0EDFA0326C4F80C80FFF7E0FAD3
:100F80004FF0504C2D4B267003442361DCF80030A9
:100F90000F216370636961801D834FF00405A3F81E
:100FA00078504FF00505A3F890504FF00605A3F8D0
:100FB000A8504FF007050E214FF6FF7208274FF09B
:100FC0000A0EA3F8C0504FF001094FF00C0C4FF07F
:100FD000020B4FF0090A0D204FF00B05A3F8681122
:100FE0001749A280A3F808E1A160A3F848B0A3F8CC
:100FF000F0A0A3F82051A3F838C1A3F85001A3F83A
:101000003090A3F86060A3F8D8701A800D4B30467A
:10101000C8F820700C49DC60FFF70EFB49463046EB
:10102000FFF7D8FA094B0A211F640348BDE8F84FBF
:10103000FFF7BEBD381F002098650020384D002006
:10104000FFFF1000E4610020310C001000200B4075
:1010500000000B4000487047381F00202DE9F04188
:10106000054618200C4601F035F90646002843D005
:101070001821204601F04AF901217061284600F04C
:1010800085FAF5600746FFF75BFA4FF050414FF6DF
:10109000FF731B4A3770024432610A6833817270F1
:1010A000A2B27281013AB38072805CB1002204EB7B
:1010B00044047069A10020F812300C3201339142CF
:1010C0009BB2F8D10F4C4FF001082C1BB4FA84F4FA
:1010D000640907EB84040C4B08FA07F720460B4918
:1010E0002F6243F8246005F50155FFF7A5FA414644
:1010F0002046FFF76FFA2F603046BDE8F08100BF51
:10110000384D002000800B40E4610020310C0010BD
:101110001C4B984234D02DE9F041C568DFF870804F
:101120000121A5EB0806B6FA86F60446077876098B
:1011300001FA07F305F5415207EB86062B623046AC
:101140001360FFF747FA30460F49FFF799FB39461E
:10115000284600F00FFAE3680025A3EB0802B2FA74
:1011600082F2237809495209606903EB820341F84E
:10117000235001F009F92046BDE8F04101F004B91F
:10118000704700BF381F0020310C0010E4610020C0
:1011900000800B40F8B59DF82050044617461E46C7
:1011A00035B900F011FA874266EB010100295CDBDA
:1011B0002169EFF3108372B6D1E8CF0F0122002826
:1011C000FAD1C1E8402F0028F6D1BFF35F8FB4F900
:1011D0000220656902EB4201002A4FEAC10C206936
:1011E00005EBC10139DB35F80CE0A4F802E04FF063
:1011F000000EC0E88FEF83F310884888069B01300B
:10120000C0F30E00012838BF01200B61079B488006
:101210004B61C1E9027640EA02402369EFF3108195
:1012200072B6D3E8CF7F0126002FFAD1C3E8476F0B
:10123000002FF6D1BFF35F8FA38825F80C30A28072
:101240002369C3E88FEF81F310880122E3682178D6
:1012500003F501538A405A60F8BD0022C0E88F2F81
:1012600083F310884FF0FF30F8BD2846F8BD00BF6B
:101270000146F0B50069EFF3108772B6D0E8CF5F92
:101280000124002DFAD1C0E8454F002DF6D1BFF35F
:101290005F8FB1F902E04C690EEB4E0CBEF1000F0E
:1012A0004FEACC05086904EBCC0C3CDB665B4E8056
:1012B0000026C0E88F6F87F31088BCF80200CCE9E5
:1012C00002230130C0F30E00012838BF0120059B26
:1012D000ACF80200CCF81030069B40EA0E40CCF887
:1012E00014300B69EFF3108272B6D3E8CFCF012729
:1012F000BCF1000FF9D1C3E84C7FBCF1000FF4D171
:10130000BFF35F8F8B886353A1F804E00B69C3E8D8
:101310008F6F82F310880122CB68097803F501539F
:101320008A405A60F0BD0023C0E88F3F87F31088E1
:101330004FF0FF30F0BD00BF03464089B0EB214FB6
:1013400037DD58690A1402EB420210B500EBC20007
:101350001C69EFF3108C72B6D4E8CFEF0122BEF116
:10136000000FF9D1C4E84E2FBEF1000FF4D1BFF346
:101370005F8F428889B292B28A4207D000221B69ED
:10138000C3E88F2F8CF31088002010BD42F4004278
:1013900042800121002218699971C0E88F2F8CF3D7
:1013A00010881C78DA68084602F50153A14059609C
:1013B00010BD0020704700BF407870472DE9F04312
:1013C000B0F1960541F1FF37A84271EB070338BF32
:1013D000002583B038BF2F4604460E4600F0F4F8CF
:1013E000281A67EB010C01287CF1000C06DA204674
:1013F000314603B0BDE8F04300F01EB900F0E4F858
:10140000854267EB010100290ADB0021154B2A46C2
:10141000009315483B460191FFF72AFF0130E6D0C3
:10142000DFF84C80DFF84490D8F824309F4205D88C
:10143000D8F82820AA42DAD29F42D8D1D9F8003071
:10144000EFF3108172B6D3E8CF0F01220028FAD152
:10145000C3E8402F0028F6D1BFF35F8F034808F0A0
:1014600001F8E1E7210F0010381F002098650020E7
:1014700000000B402DE9F04306460D4683B0EFF324
:101480000584E4B23CB12D4B5A6AAA421CD200201A
:1014900003B0BDE8F0832A4FD7F80C9097F800808E
:1014A000484600F089F808F1040859F828301B1A5A
:1014B000301A65EB0101984271F1000110DB20BF89
:1014C0001E4B5A6AAA42E2D314BF012400249B6A2D
:1014D000B34234BF204644F0010003B0BDE8F083BE
:1014E00000F072F8864265EB0101002914DB154B10
:1014F0003846CDE9003432462B46FFF7B9FE011ECF
:101500000ADD0E4B5A6AAA4216D39B6AB34211D324
:101510000B48FFF711FFB6E7084B5C6AAC42B6D345
:10152000641B18BF01249B6AB34234BF204644F0B9
:101530000100ADE7AA42EBD120BFE9E700000B4074
:10154000381F0020210F00100048704700000B409A
:1015500010B4054B054C064AA04214BF1846581C4F
:101560005DF8044BFEF758BFBC4F002000800B40D5
:10157000F4270710034B044A904214BF1846581C26
:10158000FEF7B6BFBC4F002000800B4010B5074AE5
:10159000074B084C82B0A04214BF1046501C009369
:1015A00000220323FEF764FF02B010BDBC4F0020F1
:1015B0001828071000800B400346416A0A46986AC3
:1015C000596A8A42FAD17047034B596A0A46986AA7
:1015D000596A9142FAD1704700000B4030B4154A65
:1015E000536A9C46946A536A6345FAD10219594179
:1015F0004FF0000528BF01250E4B5B6AB5B15A1CA0
:1016000008BF1A4608D04FF0FF310A460948436A1E
:101610008B42FCD38B4207D1064902E0486A9842CC
:1016200002D1886A9042F9D330BC70479942EDD814
:10163000F0E700BF00000B40074A536A9942FCD80C
:10164000994207D1044B02E05A6A914202D19A6A48
:101650009042F9D8704700BF00000B40F8B505462E
:1016600006200E4600F0E4F8002842D0354A3648FD
:10167000954214BF4FF080624FF00062334B344903
:1016800002601A608C6832EA0404FBD12D4B4FF4DF
:101690008071EB1AB3FA83F32E4A5B09062022F815
:1016A000131000F0C5F8C300B3FBF6F30133DA09F9
:1016B00020D1402601216962AA622F6BFB0722D448
:1016C0002B46002253F82C1F062003F5805422607D
:1016D0002F6300F0ADF840F2013103228000B0FB2F
:1016E000F6F0EB6A83F0700303F07E032360296356
:1016F000AA64F8BD4FF6FE718A421BD922464FF606
:10170000FF71154ED7E740F2013205F540531A63D9
:101710006B6AAC6A062004EB831400F089F80F4B67
:10172000A402A3FB0023DB0A0021B4FBF3F0FFF7C4
:1017300055FFC5E7C3F34503114603EB82161A466E
:10174000B9E700BF0080074000200240003002409F
:1017500000000240EC670020C0FF3F00757B2B8F2C
:1017600000EB400C4FEA8C0C0CF1804C0CF5803CEB
:10177000F0B51646DCF80420051FB2F5803F38BFEF
:101780004FF48032EDB238BFCCF80420012D2AD9B5
:101790004FF40067254C0CF54052176054F8202098
:1017A000B2B9DCF80020012D82EA461202F0E00214
:1017B0000CF5805632602AD94FF4006144F820308D
:1017C0004FF480330CF500521160CCF80430F0BDBA
:1017D0006769B7FBF2FE0EF1010E0EEB4E0EBEF185
:1017E000030EFCD2DDE70129D2D103240CF54052CF
:1017F0001460DCF80820D207FBD5DCF800200B4C85
:1018000082EA461202F0E0020CF5805632600122B4
:10181000DCF800504D4005F00305356002FA01F197
:10182000DCF808200A42FBD0C6E700BFC44F002006
:10183000014B53F820007047C44F002070B4039D43
:1018400004682D0345EA03451B4B002CB3FBF1F361
:10185000B2FBF3F61FDB194A194B904214BF4FF449
:1018600080424FF40042174C1A6003F580531A600F
:10187000A36832EA0303FBD1212200F5405304336D
:10188000016086601A600268002AFCDA0822C560DE
:101890001A6070BC7047036803F03F038B42DAD1D3
:1018A0008368C3F30B03B342D5D1C36803F4EE23BB
:1018B000AB42D0D1EDE700BF001BB7000080054070
:1018C0000020024000000240012300EB40008000A5
:1018D00000F1804000F5841041600360704700BF54
:1018E0000023DB8A002242E800F2520201D41021D8
:1018F00018470421184700BF034AD2F82838002BA4
:10190000FBD0BFF35F8F704700000E400021044BF7
:10191000044ABFF35F8F43F8041B9342F9D1704729
:101920000C080E402C080E40012070474FF0504329
:101930001A4A196870B552F82120064682F31088B9
:1019400003221C68164D2A5540BFFFF73DFE4FF499
:101950007A7203464FF0FF3C6FF00040E6FB023125
:101960009C4570EB01022A5D3CBF63460146042A98
:1019700008D00C48426A91420BD8866A9E4201D236
:10198000914206D02B5D042B14BF6FF001000020A4
:1019900070BD20BF2A5D042AECD1F3E7685F002008
:1019A000D85F002000000B40F0B54FF050440123F9
:1019B0000026246887B0009684EA0306B34005AF8A
:1019C000019305464FF400722346234923480297AA
:1019D00009F0DCFF012818BF6FF0080030D1204E5D
:1019E000305540BF1F21059809F0CEFCFFF7ECFDF4
:1019F0004FF47A7302464FF0FF3C6FF00040E5FB76
:101A00000321944570EB0103335D3CBF6246014600
:101A1000022B08D01348436A994213D8856A95422D
:101A200001D299420ED0335D022B10D14FF05043BA
:101A30001A68EFF3108172B600200B4B43F82210A6
:101A400007B0F0BD20BF335D022BE4D1EBE70323E9
:101A50006FF001003355F3E72C2807103D040020F8
:101A6000D85F002000000B40685F002000487047EE
:101A7000501F00202DE9F04106460F461546FFF79E
:101A8000F5FF58B1044643682846984740B93846A0
:101A9000B0472846A368BDE8F04118476FF003003F
:101AA000BDE8F08110B44FF48D704FF42A64064AFB
:101AB000064B07491460D06019605368002BFCDAAC
:101AC0005DF8044B704700BF0080044000A0044054
:101AD00000B0FA00704700BF08B50148FEF768FC87
:101AE0003C28071038B5054C054DAC4204D254F8DB
:101AF000043B9847AC42FAD338BD00BF28270710F3
:101B00006827071038B5054C054DAC4204D254F88F
:101B1000043B9847AC42FAD338BD00BF54270710A6
:101B20006827071010B40748074C084B084A0949B2
:101B300004601A608B6832EA0303FBD15DF8044B42
:101B4000704700BF002002407F3BEFEF00300240B3
:101B5000F6FFF30300000240044BDB6CB3F5004FCB
:101B600003D14FF48022024BDA6470470000115019
:101B7000002011504FF0E022044BD2F8881D0B4397
:101B8000C2F8883D10EE3004704700BF03033000F8
:101B90006FF06041044B054A19609368DB4333F0F2
:101BA0006043FAD1704700BF00300240000002409D
:101BB00010B545F25320FFF793FEBDE810400346F1
:101BC0000420184710B545F25320FFF789FEBDE801
:101BD0001040034601201847FEF7D0BC1449154BAE
:101BE00070B55C1AA610442E324628BF4422124D0E
:101BF0009200284665F016FEB4F5867F13D80F4A8A
:101C0000C6F1440012D02B19410803EBC101C3E90E
:101C1000002208338B42FAD1C30704D520F001001B
:101C2000304445F82020064B9D6070BD4320F8E706
:101C30000000001010010010000000201101001031
:101C400000ED00E0002370B52B4C82B0C4F8843066
:101C5000FFF728FF0122294BDA63636C012BFCD1CB
:101C60000321264A244B11639C6B012CFCD10226D4
:101C7000052521460523224A22480096FFF7DEFD6E
:101C800021462B46204A21480095FFF7D7FD002228
:101C9000042031461E4BFFF763FD214628460022F3
:101CA0001C4BFFF75DFD0022082011461A4BFFF781
:101CB00057FD002209201146174BFFF751FD002266
:101CC00006201146134BFFF74BFD0022114B072056
:101CD0001146FFF745FD0420FFF7AAFD00240F4B36
:101CE000A3FB0035AD0CE0B229460134FFF7ECFD53
:101CF000062CF8D102B070BD000001400030014058
:101D0000002F685900000540008C86470080054080
:101D1000001BB70080D1F008006CDC0283DE1B439F
:101D200086B003B451FC0804CDE9020151FC09045A
:101D3000CDE9040151EC0A04CDE9060103BCF047EA
:101D4000BDE800504EEC00C4BDE800504EEC01C4AC
:101D5000BDE800504EEC02C400BD000000B5FFF726
:101D6000DFFF02E010FE30F4F8D441EC100443EC45
:101D7000112400EE010410EE010480EE200451EC69
:101D80001004704700B5FFF7CBFF02E010FE30F4FF
:101D9000F8D441EC100443EC112400EE010410EEE1
:101DA000210480EE200451EC3004704700B5FFF7A9
:101DB000B7FF02E010FE30F4F8D410B541EC100487
:101DC00043EC112451EC040453EC0524A0FB024C19
:101DD0005FF0000EE0FB03CEE1FB02CE4CEC2044B2
:101DE0000024E1FB03E444EC30E480EE200451ECF9
:101DF0005004BDE81040704700B5FFF791FF02E0C6
:101E000010FE30F4F8D441EC100443EC112451ECF2
:101E10002104A0FB01126FEA820252FB100052FB68
:101E200012F252FB1000A0EBD07C53EC04245CFBBC
:101E300013F153EC1524A1FB022001FB030053EC2A
:101E40004424A2EB000050FB1CF24FEA111312EBEA
:101E5000017043EBE27140EA515020EA915020F0CA
:101E6000070053EC7524A0FB023C53EC752400FBE7
:101E700003CC01FB02CC53EC0424ACEB824C40EAD3
:101E80005C70A0F1010041EC400480EE200451ECB4
:101E90007004704700B5FFF743FF02E010FE30F416
:101EA000F8D441EC100480EE220410EEB204704726
:101EB00000B5FFF735FF02E010FE30F4F8D440EC37
:101EC000700400EE010410EE210480EE200451ECB9
:101ED0003004704700B5FFF723FF02E010FE30F436
:101EE000F8D440EC600400EE010410EE210480EE12
:101EF000200451EC3004704700B5FFF711FF02E0F9
:101F000010FE30F4F8D441EC800400EE010410EE31
:101F1000010480EE400410EE1304704700B5FFF793
:101F2000FFFE02E010FE30F4F8D441EC800400EE35
:101F3000010410EE010480EE400410EE33047047FB
:101F400000B5FFF7EDFE02E010FE30F4F8D441ECEE
:101F5000100443EC112400EE010410EE3004C0F331
:101F60000070704700B5FFF7DBFE02E010FE30F4B2
:101F7000F8D441EC100443EC112400EE010410EEFF
:101F80003004C0F38070704700B5FFF7C9FE02E06F
:101F900010FE30F4F8D443EC102441EC110400EEB0
:101FA000010410EE30F48CBF01200020704700BF08
:101FB00000B5FFF7B5FE02E010FE30F4F8D443ECB4
:101FC000102441EC110400EE010410EE30F42CBF9B
:101FD00001200020704700BF00B5FFF7A1FE02E01E
:101FE00010FE30F4F8D441EC100443EC112400EE60
:101FF000010410EE30F42CBF01200020704700BF18
:1020000000B5FFF78DFE02E010FE30F4F8D441EC8D
:10201000100443EC112400EE010410EE30F48CBFE8
:1020200001200020704700BF0022002950DA404202
:1020300061EB4101C9B1B1FA81F30B3B17D4D3F184
:10204000200C30FA0CFC9840994051EA0C011A44DB
:10205000524202F2324201EB025141F0004140F2A1
:10206000FE739A4238BF704721E011467EE003F1CB
:10207000210310FA03FCA3F1010301FA03FCC3F1ED
:10208000200320FA03F021FA03F140EA0C00A3EB4D
:10209000020202F2324214D050F1000041EB025130
:1020A00041F0004140F2FE739A4238BF70474FF052
:1020B0000001A8BFC7F6F0714FF000007047002183
:1020C0007047EBD350F1000020F00100E6E700225A
:1020D000B9B1B1FA81F30B3B16D4D3F1200C30FA2D
:1020E0000CFC9840994051EA0C011A44524202F209
:1020F000324201EB025140F2FE739A4238BF704700
:1021000020E0114600F066B803F1210310FA03FC49
:10211000A3F1010301FA03FCC3F1200320FA03F049
:1021200021FA03F140EA0C00A3EB020202F2324270
:1021300012D050F1000041EB025140F2FE739A427E
:1021400038BF70474FF00001A8BFC7F6F0714FF0DD
:102150000000704700217047EDD350F1000020F0DF
:102160000100E8E7002880F235804042B0FA80F3B1
:102170000B3B11D4984001EB0302524202F212428F
:1021800000EB025141F000414FF0000040F2FE73BD
:102190009A4238BF704713E0C3F1000330FA03FCE2
:1021A000C3F120029040A3EB010202F212420CEBB9
:1021B000025141F0004140F2FE739A4238BF70472D
:1021C0004FF00041A8BFCFF6F0714FF0000070470C
:1021D0000021704760B3B0FA80F30B3B0FD49840F6
:1021E00001EB0302524202F2124200EB02514FF0A5
:1021F000000040F2FE739A4238BF704710E05B4225
:1022000030FA03FCC3F120029040A3EB010202F27A
:1022100012420CEB025140F2FE739A4238BF7047F3
:102220004FF00001A8BFC7F6F0714FF000007047F3
:10223000002170470022A2F232425FEA215CACF139
:102240000103A1EB03515B0513F5800F32D212EBB2
:10225000535210D40B2A36DA9140D2F1200330FACF
:1022600003F319439040BCF1000FA8BF70474042F0
:1022700061EB4101704720320EDD01FA02F3D2F129
:102280002002D140D0401843BCF1000FA8BF7047D6
:10229000404261EB41017047524282F3050231FA3C
:1022A00002F00021BCF1000FA8BF7047404261EB73
:1022B0004101704702D000200021704750EA0131EF
:1022C00018BF4FF0000C6FF0004101EBDC716FEABA
:1022D000EC70704738B50446094870F0F5F92046AF
:1022E0005EF0DAFB0546064870F0DEF92DB1054BCD
:1022F0002C449C4201D8284638BD0348FEF758F8C4
:1023000040300020000008204828071070B504461F
:102310000E460B4870F0D8F9314620465EF026FB99
:102320000546074870F0C0F906FB04F42DB1054BD3
:102330002C449C4201D8284670BD0348FEF738F86B
:1023400040300020000008204828071038B5054616
:102350000C460A4870F0B8F9284621465EF074FE33
:102360000546064870F0A0F92DB1054B2C449C425F
:1023700001D8284638BD0348FEF71AF8403000203F
:10238000000008204828071010B50446054870F0E2
:102390009BF920465EF088FBBDE81040014870F0D4
:1023A00083B900BF40300020FFF794BFFFF792BF12
:1023B000FFF7EABFFFF7E8BFFFF7E6BF9A4238BF73
:1023C00088547047704700BF2DE9F04F83B099469D
:1023D000DDE90DAB0F9B884611469A07074616D1DB
:1023E000DA453AD20C460D46ABEB0A060E442246BD
:1023F0004B46414620200134B847B442F7D1294624
:10240000BAF1000F08D1204603B0BDE8F08F0C46AA
:10241000BAF1000F10D00E4655460C9B2E449A443C
:102420000191721B4B46013D41461AF8010D34469D
:10243000B847002DF5D101990F9B9B07E3D5651A8D
:10244000AB45E0D922464B46414620200135B847EE
:102450005D4504F10104F5D3D5E70C46BAF1000F50
:10246000D9D1D0E72DE9F04F0F9FDDF8248017F088
:10247000020F0A9C9DF82CA00E9DDDE90C9644D11C
:10248000F5BBB44241D207F0010B04F1FF3C4FF021
:10249000300EC44404E00134A6420CF801EF01D927
:1024A000202CF8D1BBF1000F00F08880A5422CD978
:1024B00004F1FF3C4FF0300EC44404E00134AC4260
:1024C0000CF801EF21D0202CF8D117F0100F0ED00E
:1024D00017F4806F54D1A64263D0A54261D0B9F100
:1024E000100F50D0B9F1020F56D0202C29D1202442
:1024F000CDE90B57CDE90984BDE8F04FFFF764BF84
:1025000017F0010B34D1B442BFD317F0100F1ED017
:1025100017F4806FE3D1002CDDD1B9F1100F63D037
:10252000B9F1020F77D0302488F800400124BAF1C5
:10253000000F11D17E0748D52B2608F8046001341E
:10254000D6E7264601344FF0300C08F806C0202CA0
:10255000CDD0BAF1000FEDD02D2608F8046001347B
:10256000CDE90B57CDE90984BDE8F04FFFF72CBF4B
:10257000BAF1000F30D0B44205F1FF3585D395E7AD
:10258000B9F1100FB3D1BE063BD5202CAFD05826E1
:1025900008F804600134A8E7202CA8D026460134AE
:1025A00007E0661EB9D0B9F1100F36D0B9F1020FAD
:1025B000C9D14FF0620C08F806C096E717F0100F6B
:1025C000C5D017F4806F86D089E73E0790D52026C6
:1025D00008F8046001348BE717F00C0F00D0013DC0
:1025E000B442FFF452AF61E7BC0612D4782488F8F5
:1025F0000040302488F801400224BAF1000F99D03D
:10260000AAE7202C3FF473AF782608F80460013461
:102610006BE75824EBE76224E9E717F0200FA4F1F9
:10262000020C04D04FF0580E08F80CE08BE74FF086
:10263000780E08F80CE086E700B9704701F064BC3A
:1026400010B1D1E900311847704700BF0000000009
:102650002DE9F04F97B09DED207BDDE9225B074629
:10266000884651EC170B249C99460C920B46024667
:102670008DED047B0794FFF767FC002840F0F481A0
:10268000DDE904014FF0FF326FF48013FFF780FCA7
:10269000002840F01B81DDE904014FF0FF32AC4B14
:1026A000FFF7B2FC002840F0EE80DDE90401A4A3AE
:1026B000D3E90023FFF7A8FC002840F0D380DDE930
:1026C0000401A1A3D3E90023FFF762FC002840F036
:1026D000C980DDE9040100220023FFF759FC00282E
:1026E00040F0E88023460D9013F4806F08BF062564
:1026F00030212B460EAAA5F1200605E0013BB3428E
:1027000002F8011B00F09381092BF7D81E46ED1A41
:10271000DDE90401FFF7F4FB8E4B044603EBC6032F
:1027200093ED007B8DED087BFFF7C6FB02460B4661
:10273000DDE90401FFF72AFBDDE90823FFF73AFB97
:1027400002460B46CDE90A23FFF7ECFB8246FFF772
:10275000C5FB02460B46DDE90A01FFF717FB0246FF
:102760000B46CDE90A2300227B4BFFF74DFC0028E6
:1027700000F0FE800AF1010A5046FFF7AFFB024667
:102780000B46DDE90801FFF717FC10B14FF0000A16
:102790000134002E00F0FD80681E0EABDFF8CCC1C6
:1027A00018440FE0ACFB0A21C90801EB8102AAEB37
:1027B00042023032BAF1090F00F8012F40F21C81B9
:1027C0008A461D46202D05F1010306F1FF36E9D1A9
:1027D0002025691E0EAB6148194410E080FB04629D
:1027E000C3EBA20303EB8302A4EB420404F1300227
:1027F00001351C4601F8012F002B00F0EB80202D45
:102800004FEAE473EAD1079B03F00303012B18D1CD
:10281000BBF1000F15D00D9B002B00F00A810BF1CE
:10282000FF3BBBF1200F0CD96B1E0EA930220B44CD
:1028300005E001355D4503F8012F80F0D180202DA2
:10284000F7D1079B0EACCDE902B341464B46384663
:102850000C9A01950094FFF7B7FD8246504617B0D9
:10286000BDE8F08F079B9DED047BCDE923B3414686
:102870004B4638460C9A8DED207B229517B0BDE86B
:10288000F04F00F045B9610723464CBF04230323F2
:102890004146219338464B46079A48BF304CCDE914
:1028A00022B258BF2F4C0C9A209417B0BDE8F04FBD
:1028B000FFF78ABDDDE9042300200021FFF766FA57
:1028C0000123CDE904010D9323460DE723469C0720
:1028D00040F0AA80BBF1040F40F2A6800C9B1D467D
:1028E0001C1F04EB0B0A2A464B46414620200135AB
:1028F000B847AA45F7D155461B4C261F14F8010DC1
:102900002A464B464146B847B44205F10105F5D188
:10291000079B0AF1040A9807A0D50C9CAAEB0403B4
:102920009B459BD952464B46414620200AF1010A5D
:10293000B847AAEB04035B45F4D38FE7AFF30080FD
:102940000000000065CDCD410000000065CDCDC187
:10295000FFFFEF7F488607100000E03F676666666E
:10296000A4280710AC280710B8280710CDCCCCCC71
:102970000022DDE90A01634BFFF70AFB00287FF420
:1029800008AFBAF1000F6AD10AF1010A002E7FF4F4
:1029900003AF2046FFF790FA02460B46DDE904013B
:1029A000FFF7F4F902460B46CDE904230022554B0C
:1029B000FFF7EEFA00287FF40CAFDDE904010022F6
:1029C000504BFFF721FB00287FF403AF013424F0C4
:1029D0000104FEE6079B03F00303012B00F0828055
:1029E000202D3FF42EAF0D9B7BB32D220DEB050365
:1029F00083F83820013524E7202B3FF4E9AE0EAAF6
:102A000015441E44302204E0202B05F8012F3FF42A
:102A1000DFAE9E4203F10103F6D12E220DEB060339
:102A200083F83820751CD4E6DDF830A063E7202554
:102A30006EE6079B13F00C0F50D00BF1FF3BAB453C
:102A40003FF6F2AE202D3FF4FCAE079B5A0701D5AE
:102A50002B22CBE71B077FF5F4AE2022C6E71AF046
:102A6000010F3FF496AE8FE7A60734D1BBF1030FF9
:102A700031D90C9B1D46DC1E04EB0B0A2A464B4643
:102A8000414620200135B8475545F7D155461E4CE3
:102A9000E61E14F8010D2A464B464146B847A642A9
:102AA00005F10105F5D1079B0AF1030A9D077FF5A2
:102AB000D5AE0C9CAAEB04039B457FF6CFAE5246E5
:102AC0004B46414620200AF1010AB847AAEB04030D
:102AD0009B45F4D8C2E6DDF830A0D7E7AB453FF61A
:102AE000A3AEAEE6BBF1000F3FF47AAF0D9B002B17
:102AF0009FD00BF1FF3B5D45FFF496AE202D7FF498
:102B000074AF9EE60000E03FB3280710000000000D
:102B10002DE9F04F9FB02A9EDDE9284507469346F0
:102B20000891099322462B46204629460E96DDE958
:102B30002BA6FFF709FA002840F0BE802046294660
:102B40004FF0FF32784BFFF75FFA002840F0B48077
:102B5000204629464FF0FF326FF48013FFF718FA32
:102B6000002840F0A9802046294600220023FFF7D4
:102B70000FFA002840F0D581CDE90A45DDE90A23A6
:102B80009046994606F4006216F480630F92139300
:102B900040F0A18058EA090340F0CA80002A40F0C2
:102BA000E38106230E9316F00202109240F0D481C6
:102BB0005346042B38BF04230C920422043B129288
:102BC0000F932046294600220023FFF7E1F9002851
:102BD00040F0F3819DED0A7B0F9B5A4603930E9BB9
:102BE0008DED007B029326F4006304933846099B25
:102BF0000899FFF72DFD024616F0200F099B089952
:102C00000CBF6520452002F10108B8470C9A129BC1
:102C100016AC5D1E82EAE273A3EBE273D10F0026CD
:102C200022469946DFF804C101E0202E10D0CE469E
:102C3000ACFB0930C00800EB8003A9EB4303303341
:102C4000BEF1090F814606F1010602F8013BECD8FE
:102C50000523002006930A2305950094099D089CEE
:102C60004246CDE90330CDE901612B462146384685
:102C7000FFF7F8FB109A8046D2B1A0EB0B06B245E5
:102C800016D90BEB06022B46214620200136B84709
:102C9000B245F6D80BF1FF335344CBF10102A3EB5D
:102CA00008034244924538BF002308F101089844C4
:102CB00040461FB0BDE8F08F5A463846CDE928455A
:102CC000CDE92BA60E9C099B08992A941FB0BDE85C
:102CD000F04FFFF7BDBC58EA09032BD1002A3FF49F
:102CE00062AF00230C930E9B0C9A934200F3B981C0
:102CF0004FF000082046294600220023FFF748F93C
:102D0000002840F013819DED0A7B26F4006646F40E
:102D100080668DED287B5A463846CDE92A8A099B84
:102D200008992C96D2E700BFFFFFEF7FCDCCCCCC2B
:102D300006230E93C9F30A50A0F2FF30FFF7BCF848
:102D4000C1A3D3E90023FFF735F8C1A3D3E90023DA
:102D5000FFF708F8C9F31309CDE90C0149F07F51D9
:102D600040460022B24B41F44011FFF70FF8A4A3F4
:102D7000D3E90023FFF71EF802460B46DDE90C01FC
:102D8000FEF7F0FFFFF7BCF80C90FFF795F89EA355
:102D9000D3E9002380468946FFF70CF80022A54BB3
:102DA000FEF7E0FFFFF7ACF80346494640461293B2
:102DB00097A3D3E90023FEF7FDFF804612988946CA
:102DC000FFF77AF894A3D3E90023FEF7F3FF024656
:102DD0000B4640464946FEF7D9FF02460B46804661
:102DE0008946FEF7E7FF42464B46CDE910014046D3
:102DF0004946FEF7B7FF0022CDE91401DDE91001D5
:102E00008D4BFEF7FDFF00228C4BFEF7ABFF024619
:102E10000B46DDE91001FEF7F3FF0022884BFEF7B9
:102E2000A1FF02460B46DDE91001FEF7E9FF42462D
:102E30004B468046894600204FF08041FEF7A6FFB2
:102E400002460B4640464946FEF78CFF02460B46BB
:102E5000DDE91401FEF7D4FF00227A4BFEF782FF72
:102E6000129B002203F2FF3C4FEA0C53FEF7A2FF35
:102E700080468946DDE90A0142464B46FFF788F85D
:102E800050B10C9B4046013B49460C9300226B4BD2
:102E9000FEF7B6FF804689460C9A43466332C62A3F
:102EA00006F00202109249460F9A2CD8002A5ED0F2
:102EB000042212920B433FF416AFDDE90A0158A336
:102EC000D3E90023FFF78CF848B1DDE90A0156A3E6
:102ED000D3E90023FFF75CF800287FF404AF0E9BD2
:102EE000002B50D0139A002A7DD0013B0E93129BE9
:102EF0009A4505D9109B002B00F0AE800223109359
:102F000000230F9344E022BBBAF1050F4FD906F01E
:102F10000203002B49D105231293AAF105030F9355
:102F20003AE005F100430A940B9327E626F4006685
:102F300046F4806638462C96DDE90A67344607F188
:102F400000455A46CDE92A8ACDE92845099B0899CA
:102F5000BCE605221292ADE700230222CDE90F3232
:102F600004220C9312922CE64FF00508C2E6BAF147
:102F7000040F1FD9109B002B78D104231293AAF1C0
:102F800004030F9304E0129B9A4531D80E9B0F93D4
:102F90000C9B002B3FF415AEDDE90A0142464B467F
:102FA000FEF72EFFCDE90A010BE60223109305235D
:102FB0001293F1E704231293EAE7DDE90A45A046FC
:102FC0000F9B05F1004903930E9B5A46029326F48A
:102FD000006304933846CDE90089099B0899FFF7FF
:102FE00037FB024608E6129B9A4544D80F92CFE77A
:102FF000109B8BB30E9B0F9302231093C8E700BF67
:1030000061436F63A787D23F71A379094F930A4049
:103010001655B5BBB16B0240EF39FAFE422EE63FC2
:103020002D431CEBE2361A3F0000000080842E4145
:103030000000F83F0000E03F00002C40000024406A
:10304000000018400000F03FFB799F501344D33F2D
:10305000B3C8608B288AC63F129BAAEB03030F9369
:1030600096E7A3EB020808F1FF3843E60423129326
:10307000022310938CE7109B002BEDD002230F92BC
:10308000109385E72DE9F04F9BB0249C954D0A9451
:10309000954CB1F1000A18BF834625601878934C0F
:1030A000914608BFA3460993002800F093824FF091
:1030B00000080AE042464B46514608F10108D8474D
:1030C000099B1878002800F0CE80099B252803F181
:1030D00001030993EED11C460023224612F8010B8E
:1030E000A0F1200110290AD8DFE801F04009093CCD
:1030F0000909090909090938093409093000A0F149
:1031000030010929099440F28A802A2800F0F080D1
:1031100000252E2800F096800026A0F168011229D3
:103120002DD8DFE811F049012C0043012C003801B3
:103130002C002C002C002C002C002C002C00270034
:103140002C002C002C002C002C002700144643F0EF
:103150000103C2E7144643F00203BEE7144643F0FE
:103160000403BAE7144643F01003B6E7144643F0ED
:103170000803B2E70999487843F48073013267285D
:1031800009927ED8242840F2C180A0F12502422A6B
:1031900000F2BC80DFE812F05001BA00BA00BA00B9
:1031A000BA00BA00BA00BA00BA00BA00BA00BA004F
:1031B000BA00BA00BA00BA00BA00BA00BA00BA003F
:1031C000BA00BA00BA00BA00BA00BA00BA00BA002F
:1031D000BA00BA00BA00BA00190137011901BA00E1
:1031E000BA00BA00BA00BA00BA00BA00BA00BA000F
:1031F000BA00BA00BA00BA00BA00BA00BA00BC01FC
:10320000BA00BA00BA00BA00BA00BA00BA00BA00EE
:10321000BA00BC015801BC01190137011901002590
:1032200000E0013205EB850500EB45051078303DE7
:10323000A0F130010929F4D92E28099202F10102E6
:103240007FF46AAF099943F4806348781146A0F18E
:103250003006092E40F221812A2800F02F810992A0
:103260000026013259E74446C14501D809F1FF382B
:103270004B46424651460020D84720461BB0BDE889
:10328000F08FA0F16902D2B20F2A3FD8012149F292
:1032900041079140394040F0F3800A2A3DD0072A87
:1032A00034D10A9D55F8042B002A00F0138143F015
:1032B000210012AB1F460B9303E0202900F014817C
:1032C0001A4602F00F042346092C94BF30333733DB
:1032D0000F2A07F8013B01F101014FEA1213ECD864
:1032E00002E100BF85300010CC5F0020C523001034
:1032F0000A99099851F8045B4078002DCDE909211D
:10330000BCBF43F002036D42013202E742464B4626
:10331000514608F10108D847D2E60A99002E51F823
:10332000047B18BF3246387808BF4FF0FF320028C0
:1033300000F07B83BC18A4463A4604E012F8014F23
:10334000002C00F03F819445F8D16446E41B5A05F7
:1033500040F12281B44228BF344613F0020300F04A
:1033600088820223CDE90A5142461D46464408E0C0
:103370004B465146D84717F8010F08F1010810B124
:1033800042464645F4D12B460B990A9D002B40F04E
:1033900041810A9194E6099948786C287FF4ECAE53
:1033A0000A46887843F440730332E8E6099943F407
:1033B000007348780132E2E609994878682800F0FD
:1033C000038143F080030132D9E6672800F0D980F9
:1033D000472800F0DC80452800F0DB80CDE903536E
:1033E0000A9B0296073323F007031C464246F4E883
:1033F00002674B4651465846CDE900670A94FFF7ED
:1034000087FB80465CE6462808BF43F02003CDE9F1
:1034100003530A9B0296073323F007031C464246D8
:10342000F4E802674B4651465846CDE900670A94D6
:10343000FFF70EF9804643E642464B4651462520AB
:1034400008F10108D8473BE60A9A990702F10404FB
:1034500008F1010640F1C68010784B4642465146BD
:10346000D847012D88BFA84440F2BD8132464B4663
:10347000514620200136D8474645F7D10A941FE629
:103480006F2800F0818040F24882782800F0908117
:103490000A2723F01003BC4641E0002606EB86060F
:1034A00000EB4600A0F1300611F8010FA0F1300248
:1034B000092AF3D90A46099101322EE6DDE90921EC
:1034C00051F8046B9078023209920A91013226EA8F
:1034D000E67622E623F0100013F4806240F021002B
:1034E0003FF4E7AE12AB0B930B9B069000930823BF
:1034F0001020059300234246CDE9023001914B464E
:10350000514658460496FEF7ADFF0A958046D7E52A
:10351000582862D0622840F08F800227BC4613F4FE
:10352000806000F0DD8023F00D0313F4007240F0A2
:1035300081810A990F1D13F4807140F037825C0677
:103540000A9A40F13B811278002A40F04E8123F024
:103550001003002800F04981114612AA0B92CDE910
:103560000553CDE903C601910B9B4246009300230E
:103570005146029358464B46FEF774FF0A97804621
:103580009EE543F4006329E70827BC46C7E743F4F8
:10359000006343F0200321E713F0020300F08E8163
:1035A00002230A951E460D4642464B465146D847D1
:1035B00017F8010F08F101080028F5D12946334614
:1035C0000A9DE3E6D41BC2E60A46887843F0C003AE
:1035D0000332D4E50446804646E6102743F0200334
:1035E000BC469CE7012D40F2F880464608F1FF37C3
:1035F0002F4432464B46514620200136D847BE4222
:10360000F7D10A9B3246187851464B46D847A84412
:103610000A9455E54646A5427FF6BBAEA844A8EB02
:1036200004080C4632464B46514620200136D84706
:103630004645F7D12146ACE613F4806200F0BB802A
:103640004FF4806223F0110C1CF400770A9B4AD1DE
:103650001CF4807003F1040440F034811CF0400F2E
:1036600040F0A3801CF0800F00F0D381B3F900106C
:1036700081EAE177A7EBE177BFB2CB0F002900F039
:1036800056813A4612A90F46DFF8D8E30B910A9308
:103690000C9501E020280FD01546AEFB0213DB0885
:1036A00003EB8301A2EB41013031092D1A4600F1F1
:1036B000010007F8011BEDD80A9B0C9DCDE9055CC4
:1036C000CDE9010304960B9B424600930A23514621
:1036D000039358464B46FEF7C5FE0A948046EFE436
:1036E00023F00C0321E7073323F0070319460846AC
:1036F0005B6850F8081BDF0F0A9051EA030062D1A3
:10370000002A40F09F811346114612AACDE90C759C
:1037100000201546CDE90E68DFF848E30B9201E082
:1037200020282DD05A1842F10002AEFB027828F072
:10373000030707EB9807D21B1E469B1A61F100078F
:103740000C464FF0CC3101FB03F10EFB0711A3FB3C
:103750000E731944052307F00108A8FB03389B18D2
:103760000A2E03F130034FEA570774F1000405F8FD
:10377000013B00F1010047EAC1734FEA5101CFD28A
:10378000DDE90C75DDE90E680B9B424600930A23C8
:10379000CDE9055CCDE90107049603934B465146FC
:1037A0005846FEF75FFE80468AE419780F4664E7C4
:1037B0001027BC46B3E623F0100C45E71C064CBFAF
:1037C00012881268C0E60A46191E01DB13469CE700
:1037D0005242134661EB410197E713465146187870
:1037E00042464B46D847B04648E613F0200F14BF78
:1037F0004120612012ACA6460B940A93A0F10A0462
:103800000C9502E0202912D02A46B2FBFCF50CFBF5
:103810001520C3B2092803F130008ABF1B19C3B2B7
:10382000DBB262450EF8013B01F10101EAD20A9BCD
:103830000C9D94E60A9A073222F00702516852F86A
:10384000084B8E460A9254EA010276D123F0100307
:10385000002872D00022114612AA0B92CDE905531E
:103860000B9B424600930023CDE903C601910293CE
:1038700094E7A54298BF01347FF674AD4FF480639E
:10388000CDE90A7505EB08021F460D46141B42469A
:103890004B465146202008F10108D847A045F6D1F3
:1038A0003B460A9F294638780B9D6C1C00283FF444
:1038B00070AD002B3FF475AE002353E5A542DFD871
:1038C00001346EE61968CB0F002900F0A88081EA68
:1038D000E172A2EBE17212A90846DFF888E10B91D0
:1038E0000A930C9501E0202F0FD01546AEFB021372
:1038F000DB0803EB8301A2EB41013031092D1A46AD
:1039000007F1010700F8011BEDD80A9B0C9DCDE9DA
:10391000055CCDE901730496D5E6692823F0100C07
:1039200040F08C8013F480623FF48EAE88E6002A6B
:103930003FF4A8AE12AA0B92C0E613F0200F14BFFA
:1039400041226122002012A90A3ACDE90E68CDE990
:103950000C35CDF844B006468846754693460B9123
:10396000CDF840C003E0202E17D004460D4629466E
:103970003A46002320466EF093FED2B2092A02F1A5
:10398000300388BF02EB0B03BC42DBB275F10005CC
:1039900008F8013B06F10106E5D23146DDE90C35B8
:1039A000DDE910CBDDF83C800E9E57E70A990968E7
:1039B00051B923F0100338B112A90B91CDE9055389
:1039C000CDE903C60192CFE513F0200F14BF4120CB
:1039D000612012ACA6460B940A93A0F10A040C9540
:1039E00002E0202A12D02946B1FBFCF50CFB151091
:1039F000C3B2092803F130008ABF1B19C3B2DBB27E
:103A000061450EF8013B02F10102EAD20A9B0C9DCE
:103A1000D4E7196881EAE177A7EBE1772DE6002A80
:103A20003FF459AF12AA0B9271E713F480640DD0E2
:103A300013F0020412D004464646ECE50A2763461A
:103A4000BC466CE512AB00200B939DE613F002031D
:103A50007FF4E0AD002D7FF413AF9AE4002D7FF4E6
:103A60000DAF96E4CDCCCCCC0EB410B585B007AC80
:103A700054F8043B01464FF0FF320094044803948D
:103A8000FFF700FB05B0BDE8104003B0704700BF72
:103A9000BD23001030B594468E4605461C4683B0C3
:103AA00029467246634600940248FFF7EBFA03B0DA
:103AB00030BD00BFBD23001070B594461E460546BC
:103AC0000C4684B04FF0FF32634602A900960348CB
:103AD000CDE90254FFF7D6FA04B070BD41260010BC
:103AE0000FB410B50E4B84B006A91C6851F8043B06
:103AF00003915CB100914FF0FF3202A90948A04741
:103B0000012004B0BDE8104004B07047184600F032
:103B10003DFA204604B0BDE8104004B0704700BF35
:103B2000CC5F00203926001010B5094B84B01C680A
:103B30004CB1034600914FF0FF3203A90548A0475E
:103B4000012004B010BD00F021FA204604B010BDE1
:103B5000CC5F00203926001000BEFDE7074A03466F
:103B6000106838B1064903448B428CBF4FF0FF30D8
:103B700013607047034908461160F3E75C5F00205B
:103B800000000820FC690220002070474FF0FF3041
:103B9000704700BF03460846114623B9034BD3E9DB
:103BA000002300F059B94FF0FF307047E885071047
:103BB000431E012B09D810B51446084601230022E4
:103BC000214600F0D3F8204610BD4FF0FF3070477B
:103BD0004FF0FF30704700BF4FF0FF30704700BF1D
:103BE0004FF0FF30704700BF02288CBF002001203B
:103BF000704700BF08B5FFF7AFFF00BF9C461446F3
:103C000000B50B460246614683B044B1054D0648F7
:103C100001940095FFF764FF0120FFF79DFF034D1E
:103C20002C46F4E7BC280710CC280710CC600710FE
:103C300038B5064C064DFDF755FFAC4204D254F89A
:103C4000043B9847AC42FAD338BD00BF6827071041
:103C5000A427071003680846114618472DE9F041CC
:103C60001546427D07468846002A46D0002D1DDDB8
:103C70000B780A2B23D0012D4FF0000C18D04646AC
:103C8000012416F8012F21460A2A04F1010422D04A
:103C9000A542F6D165450BDC08EB050313F8013CA2
:103CA000A3F10D03B3FA83F35B093B75BDE8F08123
:103CB0003B68A5EB0C0108EB0C009847ECE7037D93
:103CC000002BD8D1036802210F489847012DE3D07B
:103CD0004FF0010CD3E716F8013C0D2BD8D08C45E2
:103CE00008EB0C00A1EB0C0101DA3B6898470221BC
:103CF00005483B689847A446CAE7294640463B68C2
:103D0000BDE8F041184700BF988607100B682DE901
:103D1000F041802B0D46064605D05A1C2B442A60E4
:103D20001E71BDE8F0810F4B1C68A4B10E4F01F16C
:103D3000040801E0246974B12368002BFAD03B68C1
:103D40000BB1A342F6D1204641462A68FFF786FF11
:103D50002469002CF0D1002301222B442A601E711B
:103D6000BDE8F081DC580020E85800202DE9F0473C
:103D700082B00D4691461C460646FDF725FC4FF0E5
:103D8000FF3C6FF000472E4A821841F10003944532
:103D900077EB03013CBF62463B462A486EF09CFC31
:103DA0006B1C804640D00CB3274F284B1C68B4B125
:103DB000B9F1000F1CD1DFF89C9001E0246974B1C7
:103DC0002368002BFAD0D9F800300BB19C42F5D112
:103DD00020462A463146B8472469002CF0D1B8F174
:103DE000000F26D1284602B0BDE8F087184FDCE767
:103DF0004FF00A0ADFF85C9002E02469002CEED054
:103E00002368002BF9D0D9F800300BB1A342F4D1CC
:103E10002A4631462046B847012220460DF10701C7
:103E20008DF807A0B847E8E7304663F071FD054616
:103E3000B9E704486EF038FC284602B0BDE8F087C8
:103E400040420F00483000205D3C0010DC5800204C
:103E5000553C0010E85800202DE9F04F98460746E1
:103E60000E4683B0DFF860B0DFF86090DFF860A046
:103E70000192DBF8004014B911E024697CB1D9F853
:103E800000500DB1A542F8D1A268002AF5D0314604
:103E9000384690470028F0DD03B0BDE8F08FDAF82F
:103EA000242090450BD8DAF82810019B994204D3BE
:103EB0006FF0010003B0BDE8F08F9045F8D101200C
:103EC0000021FDF78BFBD4E7DC580020E8580020E8
:103ED00000000B40084A136823B90AE003F11002FE
:103EE0001B6933B18342F9D129B91869106019618E
:103EF000704701B110607047DC58002008B500F031
:103F0000A3F9012008BD00BFF0B583B006468DF8C7
:103F10000700FDF759FB4FF0FF356FF00044174ADB
:103F2000821841F10003954274EB03013CBF234624
:103F30002A4613486EF0D0FB124B07461C689CB112
:103F4000114D01E024697CB12368002BFAD02B6865
:103F50000BB19C42F6D1204601220DF10701FFF77B
:103F60007DFE2469002CEFD117B9304603B0F0BDB7
:103F700003486EF099FB304603B0F0BD40420F009D
:103F800048300020DC580020E858002038B50446AE
:103F900063F0BEFC012305461A4620462946FFF77A
:103FA000E5FE084B1C682CB163682BB19847246967
:103FB000002CF9D1284638BD2469002CF4D12846BC
:103FC00038BD00BFDC5800202DE9F041A2B0044606
:103FD0000D46FDF7F9FA4FF0FF376FF00046264A1D
:103FE000DFF8A480821841F10003974276EB0301C9
:103FF0003CBF3A46334621486EF06EFB00272B4605
:104000002246064601A91E480197FFF755FD019B70
:104010000546D8F80040C3B1002C2BD0194F01E061
:10402000246974B12368002BFAD03B680BB1A3421A
:10403000F6D12046019A02A9FFF710FE2469002C50
:10404000F0D10023D8F8004001932CB1636843B14C
:1040500098472469002CF9D12EB9284622B0BDE832
:10406000F0812469F1E705486EF01EFB284622B076
:10407000BDE8F0810194EFE740420F004830002096
:104080000D3D0010E8580020DC5800200FB400B5AA
:1040900083B004A951F8040B0191FFF795FF03B019
:1040A0005DF804EB04B07047B1F1000C1DDD0F4A60
:1040B0000F4B126830B5D31AB3FA83F30D240D4DAC
:1040C0005B09411E35F913E08C4411F8010F864558
:1040D00006D093699B06FCD461451060F5D130BDD4
:1040E00093699D06FCD41460F3E77047F0670020E5
:1040F00000800740EC670020224BB1F1000C10B4A7
:104100001C682EDD034600201F4A591E1268936961
:10411000DB0617D401309369DB06FCD413688445B1
:1041200001F8013FF3D14CB150211346916353F88C
:10413000342F02F0380203F580531A6060465DF8B0
:10414000044B70474CB150211346916353F8342F00
:1041500002F0380203F580531A6078B15DF8044B21
:1041600070475CB1084B50211A681346916353F8AD
:10417000342F02F0380203F580531A606FF002000A
:10418000DDE700BFB04F0020F0670020054B1B6843
:1041900033B10021044A054812680068916318474A
:1041A000704700BFB04F0020F0670020B44F0020E0
:1041B000024B1A6893691B07FCD47047F067002014
:1041C000F8B51C4F1C4D3A681C4EAA4214BF21255D
:1041D00022250446D6F800C018B1BCF1000F10D05B
:1041E000F8BDBCF1000FFBD0014690632846FCF7F8
:1041F000F1F928461249FCF743FB124B34601C606E
:10420000F8BD0B460F4A0E49306028461360FCF794
:1042100013FA01212846FCF7DDF93A6850211346CC
:10422000916353F8342F02F0380203F580531A607B
:10423000F8BD00BFF067002000800740B04F0020AD
:104240008D410010B44F002010B50E490E4C0F48A0
:104250000F4A104B007821600020022112781B7851
:10426000FBF7E8FF02210120FBF7E4FF4FF4612197
:104270002068FDF7F3F9BDE8104001210648FFF77B
:1042800029BE00BF00000740F0670020F4390C1081
:10429000F0390C10EC390C105C1F0020014B186039
:1042A000704700BF684D002003460A460148194682
:1042B00003F0C6B8FC4F0020014B1868704700BFE0
:1042C000684D002010B582B0FFF7F6FF68B10446D4
:1042D000204604F01DF9034620461C4624F098F8B9
:1042E00084B178B1002002B010BD684604F010FD22
:1042F00069460F4804F012FDB0B10D48FFF7CEFF3C
:104300000B4CE5E7FFF7D8FF044624F0A3F820465E
:1043100004F01AF9064B9C4206D1236820465B6BD9
:1043200098470020FFF7BAFF4FF0FF3002B010BDF2
:104330005032002000B545F247308BB0FDF7D0FA7F
:1043400001220346092101A89847DDE90332044907
:1043500012BA1BBAC1E900230BB05DF804FB00BF21
:10436000AC6400200346024A03CA186059607047D3
:10437000AC64002008B50520FDF75AFA6421030C4F
:1043800001FB03F3034A5B08A2FB03231B0A033B65
:10439000FDD208BD1123970838B5D0F84C48A4B118
:1043A0002168054631B1D4E90132154803F090FF88
:1043B0000023236094F90C00002813DA94F90D000F
:1043C000002803DA0023C5F84C3838BD03F0BCFFE1
:1043D00094F90D0003F0A2FFFF2363730023C5F8D7
:1043E0004C38F2E703F0B0FF94F90C0003F096FFAD
:1043F000FF2394F90D0023730028E3DBE6E700BFF9
:10440000B886071006232DE9F04F87B001930126E7
:104410004FF6FF734FF0180800253F4C0296CDF879
:1044200000808146A381C0F84C4821463B48256066
:10443000231D04F1080203F093FE002866D0D4E99E
:104440000131374803F1050C826FDB01D243354F50
:1044500043EA0C3323F0C04302F030020593BA67FD
:10446000806F4FF4003BC0434FF4403A00F001002E
:10447000B867206801EB410CD0F8687100F5005E68
:10448000C7F1180706FA07F7CEF83870059F00EB5A
:10449000CC0CCCF8C8B0CCF8D0A0CCF8CC70224F63
:1044A0003346CCF8DC701D22009603F013FE216821
:1044B000404601F12F4101F56001090D0631C9B2F5
:1044C000FBF7B8FE324629464046FBF7D1FE31469F
:1044D0004046FBF7E1FE4EF20101A368226803EBC0
:1044E000430302EBC302C2F8D810284603F01CFFB6
:1044F0002073284603F018FF237B40B260731843F3
:10450000030603D4284607B0BDE8F08F4846FFF7FE
:1045100043FF6FF00500F6E7A04F0020B8860710B4
:10452000008003400090034018771C242DE9F04FD1
:1045300087B016461F460391002900F01981D0F874
:104540004C481820216801F12F4101F56001090D47
:104550000631C9B2FBF76EFE21681D2001F12F4123
:1045600001F56001090D0631C9B2FBF763FE0122B6
:1045700000211D20FBF77CFE19234FF0000242ECC6
:1045800040302068A168039B002F00F0F7804FF0B7
:104590000108002B08BF3B464FF0004CD0F800B09C
:1045A000039308FA01F301EB41022BEA0303D4F869
:1045B000049000EBC20E0360DEF8CC3009F1050A6E
:1045C0006FF3D01343EA0A330EF5865243EAC91358
:1045D000CEF8CC30C2F810C00023C2F810C04FF0A3
:1045E0008072CDE9002303F041FDD4E90031109839
:1045F00001F01F010591811BA268C900481E0146F8
:10460000101D049002EB420003EBC005101D03F5E2
:10461000005A08FA00F0CAF8000046F2200002F141
:10462000080E4FEAC60C03EB820908FA0EFE0CF1E5
:10463000FF3CCAF800E0C9F810C0C5F8D80046F23F
:1046400040004FF0A04BC9F810100599C5F8D800EC
:10465000C5F8D81094F90C90DDE9035108FA09F077
:104660004FEA891ECBF864040EEB0B0CDCF80C004F
:104670004001FBD44FF0010A94F90D8003954FEAF5
:10468000881C0AFA08FA0CF1A040CBF864A4824610
:10469000039DDAF80C004001FBD40EF1A04ECEF8D9
:1046A00000500395012503F12F40DFF818A200F513
:1046B0006000000D0AEA49390AEA483A02EBC008EC
:1046C00049EA4848049101EBC00010994AEA404A7F
:1046D00048F080704FEA9608C8EB9109049995401C
:1046E0004AF0807203EB810A0CF1A04C0AF1100130
:1046F00040F01900CEF804A042F04902CEF808803C
:10470000CEF80C00CCF80010B919CCF80410CCF895
:104710000890CCF80C201A6815431D6094F90C2001
:10472000920102F1A04213695801FCD494F90D30B2
:104730009B0103F1A043196911F08061FBD132465E
:1047400038465FF041FF2068A1684AF2030401EB9C
:10475000410300EBC3004FF001021923C0F8D84019
:1047600042EC4030FFF706FE002007B0BDE8F08FB6
:10477000002B7FF4E4AE6FF00400F6E7002BE4D0EA
:104780004FF001084FF0004C036808FA01FB01EB01
:10479000410223EA0B03D4F8049000EBC20E03603D
:1047A000DEF8CC3009EB080A6FF3D01343EA0A3382
:1047B0000EF5865243EAC913CEF8CC30C2F810C0C9
:1047C0000023C2F810C04FF08072CDE9002303F03F
:1047D0004DFCD4E90031A26801F01F010491101DC5
:1047E00002EB420103EBC10503F5005A08FA00F1A0
:1047F000CAF8001046F2200102F1080E4FEAC60C7A
:1048000008FA0EFE0CF1FF3C03EB8209CAF800E047
:10481000C9F810C0C5F8D81046F240014FF0A04BBF
:10482000C9F81070049FC5F8D810C5F8D87094F96D
:104830000CC0039D08FA0CF14FEA8C1ECBF86414EF
:104840000EEB0B07F9684901FCD40EF1A0410D6095
:104850000395012503EB8000486003F12F4000F52C
:104860006000000D02EBC0009540164AB60802EA4F
:104870004C3242EA404242F0807242F019028E60AD
:10488000CA601A682A431A600B695B01FCD40122D2
:10489000A368216818339A408A608B681342FCD061
:1048A000012300262068A16805688B4025EA0305DE
:1048B000056018220123009603F00CFC2068A16813
:1048C00043E700BFFDFF01FC10B51720FBF74CFDCF
:1048D0004FF00104172044EC440000220121FBF7B3
:1048E000C7FC1820FBF740FD182344EC44304FF080
:1048F000000242EC40301920FBF736FD192344EC4E
:10490000443044EC403010BD38B517254FF000045A
:1049100044EC4050142003F09FFE4FF0010343ECA1
:104920004050FA2003F098FE1820FBF71DFD1823D5
:1049300044EC443038BD00BF30B5082300250E4C90
:1049400085B004EAC22444EA0174009344F0804430
:10495000042229466B4444F00404039564BA02948B
:10496000FFF7E4FD18B9039840BA05B030BD6FF009
:10497000040005B030BD00BF00F8FF0F944630B50D
:104980000D460422114C89B004EACC2444EA057493
:1049900044F0804414430294A5F10104B4FA84F471
:1049A000640994400834002102AB0094FFF7BEFD77
:1049B00040B9012D14BF012305230DEB8303986833
:1049C00009B030BD6FF0040009B030BD00F8FF0F32
:1049D000944630B50D46134C89B004EACC2444EA21
:1049E000057444F0804444F002040294A5F10104EB
:1049F000B4FA84F40422640994400834002102AB20
:104A00000094FFF793FD40B9012D14BF0123052346
:104A10000DEB8303986809B030BD6FF0040009B056
:104A200030BD00BF00F8FF0F944630B50D46134C63
:104A300089B004EACC2444EA057444F0804444F08C
:104A400001040294A5F10104B4FA84F40422640977
:104A500094400834002102AB0094FFF767FD40B991
:104A6000012D14BF012305230DEB8303986809B0C2
:104A700030BD6FF0040009B030BD00BF00F8FF0F7B
:104A80002DE9F04F5BBA04466E4DD4F84C4805EA68
:104A9000C22545EA0175216887B001F12F4101F572
:104AA0006001090D0631182045F04042C9B242F0BC
:104AB000040252BACDE90423FBF7BCFB21681D2098
:104AC00001F12F4101F56001090D0631C9B2FBF773
:104AD000B1FB012200211D20FBF7CAFB002719238F
:104AE00047EC403001254FF000462068A168D0F81F
:104AF000009005FA01F201EB410329EA0202D4F821
:104B000004E000EBC30C0260DCF8CC200EEB0508DF
:104B10006FF3D01242EA08320CF5865342EACE1205
:104B2000CCF8CC201E614FF080721E6100234FF044
:104B30003F0A46F22009CDE9002303F097FAD4E9B1
:104B40000031A26801F01F010391101D02F1080657
:104B500002EB420105FA06F603EBC10103F5005E24
:104B600003EB820C05FA00FBCEF800B0CEF8006033
:104B7000CCF810A0C1F8D890CCF8107046F24007DD
:104B80004FF0A048039EC1F8D870C1F8D86094F9DE
:104B90000C60B540B701C8F8645407EB0805E96834
:104BA0004901FCD44FF0010C07F1A041022703F1A9
:104BB0002F4505F560052D0D02EBC5050CFA02FC2D
:104BC000214A03EB800002EA463242EA454242F0C3
:104BD000807242F0190204AD0D6048608F60CA60B7
:104BE0001A684CEA02021A600B695B01FCD40122CC
:104BF000A368216818339A408A608B681A42FCD0F7
:104C0000012700252068A168066807FA01F326EA53
:104C1000030606603B461822009503F05BFA4AF251
:104C20000300A368226803EB430302EBC3031921CB
:104C3000C3F8D80047EC4010FFF79CFB284607B0AC
:104C4000BDE8F08F00F8FF0FFDFF01FC2DE9F04FEC
:104C500004466E4DD4F84C4805EAC22545EA017574
:104C6000216845F0404501F12F4101F56001090D32
:104C7000063187B0182045F00405C9B2CDE90453C8
:104C8000FBF7D8FA21681D2001F12F4101F56001E1
:104C9000090D0631C9B2FBF7CDFA012200211D2012
:104CA000FBF7E6FA0027192347EC403001254FF0C7
:104CB00000462068A168D0F8009005FA01F201EBE7
:104CC000410329EA0202D4F804E000EBC30C0260BD
:104CD000DCF8CC200EEB05086FF3D01242EA083264
:104CE0000CF5865342EACE12CCF8CC201E614FF070
:104CF00080721E6100234FF03F0A46F22009CDE981
:104D0000002303F0B3F9D4E90031A26801F01F01D8
:104D10000391101D02F1080602EB420105FA06F6A6
:104D200003EBC10103F5005E03EB820C05FA00FB07
:104D3000CEF800B0CEF80060CCF810A0C1F8D89042
:104D4000CCF8107046F240074FF0A048039EC1F81F
:104D5000D870C1F8D86094F90C60B540B701C8F8B4
:104D6000645407EB0805E9684901FCD44FF0010CD5
:104D700007F1A041022703F12F4505F560052D0D30
:104D800002EBC5050CFA02FC214A03EB800002EAA3
:104D9000463242EA454242F0807242F0190204ADC6
:104DA0000D6048608F60CA601A684CEA02021A609F
:104DB0000B695B01FCD40122A368216818339A4077
:104DC0008A608B681A42FCD0012700252068A16800
:104DD000066807FA01F326EA030606603B46182236
:104DE000009503F077F94AF20300A368226803EB09
:104DF000430302EBC3031921C3F8D80047EC40106A
:104E0000FFF7B8FA284607B0BDE8F08F00F8FF0FAB
:104E1000FDFF01FC2DE9F04F04466E4DD4F84C48DF
:104E200005EAC22545EA0175216845F0404501F1D2
:104E30002F4101F56001090D063187B0182045F0BA
:104E40000205C9B2CDE90453FBF7F4F921681D202E
:104E500001F12F4101F56001090D0631C9B2FBF7DF
:104E6000E9F9012200211D20FBF702FA002719238E
:104E700047EC403001254FF000462068A168D0F88B
:104E8000009005FA01F201EB410329EA0202D4F88D
:104E900004E000EBC30C0260DCF8CC200EEB05084C
:104EA0006FF3D01242EA08320CF5865342EACE1272
:104EB000CCF8CC201E614FF080721E6100234FF0B1
:104EC0003F0A46F22009CDE9002303F0CFF8D4E9E8
:104ED0000031A26801F01F010391101D02F10806C4
:104EE00002EB420105FA06F603EBC10103F5005E91
:104EF00003EB820C05FA00FBCEF800B0CEF80060A0
:104F0000CCF810A0C1F8D890CCF8107046F2400749
:104F10004FF0A048039EC1F8D870C1F8D86094F94A
:104F20000C60B540B701C8F8645407EB0805E968A0
:104F30004901FCD44FF0010C07F1A041022703F115
:104F40002F4505F560052D0D02EBC5050CFA02FC99
:104F5000214A03EB800002EA463242EA454242F02F
:104F6000807242F0190204AD0D6048608F60CA6023
:104F70001A684CEA02021A600B695B01FCD4012238
:104F8000A368216818339A408A608B681A42FCD063
:104F9000012700252068A168066807FA01F326EAC0
:104FA000030606603B461822009503F093F84AF288
:104FB0000300A368226803EB430302EBC303192138
:104FC000C3F8D80047EC4010FFF7D4F9284607B0E3
:104FD000BDE8F08F00F8FF0FFDFF01FC2DE9F04F59
:104FE00004466E4DD4F84C4805EAC22545EA0175E1
:104FF000216845F0404501F12F4101F56001090D9F
:10500000063187B0182045F00105C9B2CDE9045337
:10501000FBF710F921681D2001F12F4101F5600116
:10502000090D0631C9B2FBF705F9012200211D2047
:10503000FBF71EF90027192347EC403001254FF0FC
:1050400000462068A168D0F8009005FA01F201EB53
:10505000410329EA0202D4F804E000EBC30C026029
:10506000DCF8CC200EEB05086FF3D01242EA0832D0
:105070000CF5865342EACE12CCF8CC201E614FF0DC
:1050800080721E6100234FF03F0A46F22009CDE9ED
:10509000002302F0EBFFD4E90031A26801F01F0108
:1050A0000391101D02F1080602EB420105FA06F613
:1050B00003EBC10103F5005E03EB820C05FA00FB74
:1050C000CEF800B0CEF80060CCF810A0C1F8D890AF
:1050D000CCF8107046F240074FF0A048039EC1F88C
:1050E000D870C1F8D86094F90C60B540B701C8F821
:1050F000645407EB0805E9684901FCD44FF0010C42
:1051000007F1A041022703F12F4505F560052D0D9C
:1051100002EBC5050CFA02FC214A03EB800002EA0F
:10512000463242EA454242F0807242F0190204AD32
:105130000D6048608F60CA601A684CEA02021A600B
:105140000B695B01FCD40122A368216818339A40E3
:105150008A608B681A42FCD0012700252068A1686C
:10516000066807FA01F326EA030606603B461822A2
:10517000009502F0AFFF4AF20300A368226803EB38
:10518000430302EBC3031921C3F8D80047EC4010D6
:10519000FFF7F0F8284607B0BDE8F08F00F8FF0FE2
:1051A000FDFF01FCF0B50129054683B003F10300C2
:1051B0001E460F46089C20F0030023D024234FF006
:1051C000040C174905EB8C0C01EAC221314341EA7A
:1051D0000771043041F08041CCF814100422009093
:1051E000002128462B44FFF7A1F9074678B905F1BD
:1051F0002801A14203D03246204662F013FB384614
:1052000003B0F0BD14234FF0000C1030D9E76FF05D
:1052100004010448FEF73AFF384603B0F0BD00BF72
:1052200000F8FF0F282907102DE9F04F02298BB055
:1052300003F103049A460E4605469346DDF8509066
:1052400024F003031ED0284A4AEA067602EACB225B
:1052500005F128001643484503F1040446F0404692
:1052600032D02F465246494647F8246F62F0DAFAA8
:10527000002322463946284614930BB0BDE8F04F70
:10528000FFF754B940F2E7344FF00808174F039383
:1052900004E0059B9B0623D4013C0DD3042200218E
:1052A000284604ABCDF800800497FFF73FF90028AB
:1052B000EFD0039B002CC6D10D48FEF767FE6FF0C0
:1052C00005000BB0BDE8F08F294600232246284692
:1052D00041F8246F14930BB0BDE8F04FFFF726B9E7
:1052E000039B002CAFD1E7E700F8FF0F044000401C
:1052F0005C2B071038B5836821F4FF4424F07F0449
:10530000A3420BD06340B3F1807F054607D213F46C
:105310007F0F0ED113F47F4F16D1AC6038BD230E32
:1053200001210D4AFFF75AFEAB68634013F47F0F6B
:10533000F0D0230C01212846084AFFF74FFEAB6846
:10534000634013F47F4FE8D001212846044A230A22
:10535000FFF744FEE1E700BF0C0001000B00010075
:105360000A000100C31C70B59D08A1F1020019D00C
:10537000012D52D023F0070CDE080B4601EB0C0E7A
:105380001C685A6843F8024CC3F8022008339E4553
:10539000F6D1B5EB460F05D001EB0C0200EB0C0388
:1053A00012681A60D1F802200B8814BAC1F80240C2
:1053B000D1F806405BBA0B8023BAC1F80630D1F8A9
:1053C0000A30B2F18A4F1BBAC1F80A3000D070BD62
:1053D000B4F1006FFBD1B1F8AE20D1F8B240D1F8F2
:1053E0003E3015199D421BD801F13A0313441C4469
:1053F000A3423ED24FF0000C664604E0DD2D14D0EF
:1054000013449C421FD95A7802329D18AC42F7D3FC
:105410001D78302DF2D11E46F2E70A460346BFE75B
:105420004FF0FF33C1F8063070BD9D78002DE7D1F5
:10543000DD78502DE4D11D79F22DE1D15D79012D7A
:1054400008BF9C46DCE7331E18BF01239B00BCF15C
:10545000000F01D043F00203B1F84A20D20691F8C0
:10546000822048BF43F0010381F88630A1F88220F2
:1054700070BD0023F0E700BF2DE9F0410E46054660
:1054800001213346184AFFF7A9FD3346012128467A
:10549000154AFFF7A3FD26B34FF003084746402403
:1054A0000AE0012003F0D8F83346012128460E4ACD
:1054B000FFF794FD013C0ED00B4A01212846FFF76F
:1054C000B3FA002800EA0702EBDB4245E9D1FF28E6
:1054D000E7D0BDE8F0813146BDE8F0410348FEF772
:1054E000D5BDB0460127DAE71F00010044290710A7
:1054F0002DE9F043C37C05460F46164683B02BB911
:10550000006801F073FE012840F09580284601F004
:1055100073FEAB7C2BB901212846FFF7ADFF0123B9
:10552000AB74E97C00296ED04FF47A7402E0013C40
:1055300000F08180082200212846FFF71FFA421C54
:10554000F5D0C30540F1C580C0F34A235A1EB2F519
:10555000C06F80F0B88010F0020240F0B48005F116
:105560002804022128460094FFF71CFE00283FD1A2
:10557000298D6A8D51EA020300F0AB800123EB74A0
:105580004FF6FF7381EA020C9C4540F0A880D2439D
:1055900092B2914240F0A0800B2940F2A78095F88A
:1055A0002D3095F8302003F00F03022BAA7322D878
:1055B00095F831C06A7BACEB0202D2B2142A98BFD4
:1055C00085F80DC00C291BD0012B37D0022B66D0DB
:1055D0001B2940F2978095F82F302D8A23445A8951
:1055E000954240F08C8010331C1B0C1B3C603360D8
:1055F00003B0BDE8F0830C2918BF6FF00A00F7D1A3
:105600006FF00300F4E704222846FFF7E1F9DFF822
:105610000C911FFA80F8B9F800300446434502D0D7
:1056200010F0860F2DD1B8F1000F31D1A106A9F8E5
:1056300000803FF579AF4FF0FF30D9E7102964D9EA
:1056400095F82F202244D07802EB8002107C04329F
:10565000141B8828A1EB04014BD1507B6C2848D146
:10566000D07C00283FD1107D10283CD1507D1828D7
:1056700039D11846183918323960326003B0BDE8A4
:10568000F08341462248FEF701FDB8F1000FCDD06E
:105690004346042200212846FFF7BCFBC6E7102939
:1056A0002AD9184695F82F202244D37802EB830399
:1056B000043392781C1B0C1B44EAC2723A603360BC
:1056C00003B0BDE8F083012328461946114AFFF7CD
:1056D00085FC0023EB74AEE76FF0010088E70E480D
:1056E000FEF7D4FCA7E76FF0090081E76FF0020036
:1056F0007EE76FF008007BE76FF0060078E76FF059
:10570000050075E76FF0040072E76FF007006FE7C0
:10571000682907100D00010094290710D66902209E
:105720002DE9F04F044685B099468B46924601F02C
:1057300063FDA37C2BB901212046FFF79DFE0123C9
:10574000A374A37B13B32D4EDFF8B880B76A0CE0C7
:10575000A17BED1B19B9237B627B9A421AD1454587
:1057600042D84FF47A7002F041FF204603AA02A902
:10577000B56AFFF7BDFE0128EAD1DDE90201FFF7B6
:10578000F1FD0146204601F03DFDE1E7237B627B10
:105790009A42D8D00AF10C0189B289F8043089F80C
:1057A00005B0CDF80090A9F80010C943BBF1020F75
:1057B000A9F802104FF0000214BF0C210E21581C52
:1057C0000AF10F0389F8071089F80620A9F80820C4
:1057D000A9F80A200221207323F003032046FFF7D3
:1057E00023FD05B0BDE8F08F637B227B0448FEF704
:1057F0004DFC6FF0010005B0BDE8F08F00000B40DC
:10580000C029071040420F002DE9F04F284EDFF865
:10581000AC80B76AB46A8A46E41B4445934699460D
:1058200083B02CD805460FE002281FD0002803DBE8
:1058300021462048FEF72AFC4FF47A7002F0D6FE8B
:10584000B36ADB1B43451AD86946284601AAFFF70D
:105850004FFE0446F8B10128E6D1DDE90001FFF76B
:1058600081FD0146284601F0CDFCE5E7DDE90013A6
:10587000286821F00042C90F02F01CFFDCE76FF03E
:1058800001044B465A4651460B48FEF7FFFB2046A3
:1058900003B0BDE8F08F009B4A46994528BF1A46E1
:1058A0000C9801995EF012FE204603B0BDE8F08F1F
:1058B00000000B40E4290710102A07103F420F0098
:1058C0002DE9F041044682B008460E46904662F04B
:1058D0001FF80746314604F144057E1C284632462F
:1058E00061F0A0FF07F12103B3F5006F45F80680D2
:1058F0001DD87E1D002107F1150240F20717238AEB
:10590000204601339BB223821B0443F00203E3636E
:10591000A66304F1280321646763FFF701FF30B930
:1059200033463A46022120460095FFF76DFF02B04C
:10593000BDE8F0812DE9F047044608461D4689463A
:10594000904661F0E5FF04F144072946451C4246B4
:105950007819089E5EF0BAFD2A4649463846454405
:1059600061F060FF05F11C03B3F5006F20D8238AB6
:10597000360301339BB246EA034646F00206002195
:10598000E66340F2071623822046A56304F128034C
:1059900005F1100221646663FFF7C2FE40B92B4691
:1059A0003246204608970221BDE8F047FFF72CBF9A
:1059B000BDE8F08770B5836821F4FF4626F07F06C6
:1059C0009E4204460D460AD07340B3F1807F23D235
:1059D00013F47F0F2AD113F47F4F32D1A660C5F3A1
:1059E0000E020121204642F40042FFF71DF8A36891
:1059F0000546B3F1C05F0DD083F0C053B3F1807F93
:105A000039D213F47F0F2BD113F47F4F20D14FF0F5
:105A1000C053A360284670BD330E01211B4AFFF717
:105A2000DDFAA368734013F47F0FD4D0330C012147
:105A30002046174AFFF7D2FAA368734013F47F4F4A
:105A4000CCD001212046134A330AFFF7C7FAC5E735
:105A50004FF4C013012120460E4AFFF7BFFAD6E7E4
:105A60004FF4C05301212046094AFFF7B7FAA36853
:105A700083F0C053C8E7182301212046034AFFF7EB
:105A8000ADFAA36883F0C053BBE700BF0C00010070
:105A90000B0001000A0001002DE9F843866821F49B
:105AA000FF4727F07F07B74204460D4690469946C8
:105AB0000BD087EA060CBCF1807F3CD21CF47F0F30
:105AC0002FD11CF47F4F25D1A760C5F30E02B8F18A
:105AD000010F4B4642F4004217D001212046FFF748
